{"abi":[{"type":"constructor","inputs":[{"name":"initialExchangeRate","type":"uint256","internalType":"uint256"},{"name":"initialExitFeeEnabled","type":"bool","internalType":"bool"}],"stateMutability":"nonpayable"},{"type":"function","name":"bulkOwnerUpdateWithdrawals","inputs":[{"name":"updates","type":"tuple[]","internalType":"struct LiquidStaking.Withdrawal[]","components":[{"name":"user","type":"address","internalType":"address"},{"name":"amountETH","type":"uint256","internalType":"uint256"},{"name":"deadline","type":"uint256","internalType":"uint256"}]}],"outputs":[],"stateMutability":"nonpayable"},{"type":"function","name":"computeExitFee","inputs":[{"name":"user","type":"address","internalType":"address"}],"outputs":[{"name":"","type":"uint256","internalType":"uint256"}],"stateMutability":"view"},{"type":"function","name":"exchangeRate","inputs":[],"outputs":[{"name":"","type":"uint256","internalType":"uint256"}],"stateMutability":"view"},{"type":"function","name":"exitFeeEnabled","inputs":[],"outputs":[{"name":"","type":"bool","internalType":"bool"}],"stateMutability":"view"},{"type":"function","name":"minHeap","inputs":[{"name":"","type":"uint256","internalType":"uint256"}],"outputs":[{"name":"user","type":"address","internalType":"address"},{"name":"amountETH","type":"uint256","internalType":"uint256"},{"name":"deadline","type":"uint256","internalType":"uint256"}],"stateMutability":"view"},{"type":"function","name":"owner","inputs":[],"outputs":[{"name":"","type":"address","internalType":"address"}],"stateMutability":"view"},{"type":"function","name":"processWithdrawals","inputs":[],"outputs":[],"stateMutability":"nonpayable"},{"type":"function","name":"removeExpired","inputs":[],"outputs":[],"stateMutability":"nonpayable"},{"type":"function","name":"requestWithdraw","inputs":[{"name":"amountETH","type":"uint256","internalType":"uint256"},{"name":"deadline","type":"uint256","internalType":"uint256"}],"outputs":[],"stateMutability":"nonpayable"},{"type":"function","name":"sETHBalance","inputs":[{"name":"","type":"address","internalType":"address"}],"outputs":[{"name":"","type":"uint256","internalType":"uint256"}],"stateMutability":"view"},{"type":"function","name":"stake","inputs":[],"outputs":[],"stateMutability":"payable"},{"type":"function","name":"stakeTimestamps","inputs":[{"name":"","type":"address","internalType":"address"}],"outputs":[{"name":"","type":"uint256","internalType":"uint256"}],"stateMutability":"view"},{"type":"function","name":"totalStaked","inputs":[],"outputs":[{"name":"","type":"uint256","internalType":"uint256"}],"stateMutability":"view"},{"type":"function","name":"updateExchangeRate","inputs":[{"name":"newRate","type":"uint256","internalType":"uint256"}],"outputs":[],"stateMutability":"nonpayable"},{"type":"function","name":"updateExitFee","inputs":[{"name":"enabled","type":"bool","internalType":"bool"}],"outputs":[],"stateMutability":"nonpayable"},{"type":"function","name":"withdrawalHeapEntry","inputs":[{"name":"i","type":"uint256","internalType":"uint256"}],"outputs":[{"name":"","type":"address","internalType":"address"},{"name":"","type":"uint256","internalType":"uint256"},{"name":"","type":"uint256","internalType":"uint256"}],"stateMutability":"view"},{"type":"function","name":"withdrawalHeapLength","inputs":[],"outputs":[{"name":"","type":"uint256","internalType":"uint256"}],"stateMutability":"view"},{"type":"event","name":"BulkUpdateCompleted","inputs":[{"name":"count","type":"uint256","indexed":false,"internalType":"uint256"}],"anonymous":false},{"type":"event","name":"ExchangeRateUpdated","inputs":[{"name":"newRate","type":"uint256","indexed":false,"internalType":"uint256"}],"anonymous":false},{"type":"event","name":"ExitFeeToggled","inputs":[{"name":"enabled","type":"bool","indexed":false,"internalType":"bool"}],"anonymous":false},{"type":"event","name":"Staked","inputs":[{"name":"user","type":"address","indexed":true,"internalType":"address"},{"name":"amountETH","type":"uint256","indexed":false,"internalType":"uint256"},{"name":"amountSETH","type":"uint256","indexed":false,"internalType":"uint256"}],"anonymous":false},{"type":"event","name":"WithdrawRequested","inputs":[{"name":"user","type":"address","indexed":true,"internalType":"address"},{"name":"amountETH","type":"uint256","indexed":false,"internalType":"uint256"},{"name":"deadline","type":"uint256","indexed":false,"internalType":"uint256"}],"anonymous":false},{"type":"event","name":"WithdrawalProcessed","inputs":[{"name":"user","type":"address","indexed":true,"internalType":"address"},{"name":"amountETH","type":"uint256","indexed":false,"internalType":"uint256"}],"anonymous":false},{"type":"event","name":"WithdrawalRemoved","inputs":[{"name":"user","type":"address","indexed":true,"internalType":"address"}],"anonymous":false}],"bytecode":{"object":"0x608060405234801561000f575f5ffd5b5060405161228938038061228983398181016040528101906100319190610103565b816001819055508060035f6101000a81548160ff021916908315150217905550335f5f6101000a81548173ffffffffffffffffffffffffffffffffffffffff021916908373ffffffffffffffffffffffffffffffffffffffff1602179055505050610141565b5f5ffd5b5f819050919050565b6100ad8161009b565b81146100b7575f5ffd5b50565b5f815190506100c8816100a4565b92915050565b5f8115159050919050565b6100e2816100ce565b81146100ec575f5ffd5b50565b5f815190506100fd816100d9565b92915050565b5f5f6040838503121561011957610118610097565b5b5f610126858286016100ba565b9250506020610137858286016100ef565b9150509250929050565b61213b8061014e5f395ff3fe6080604052600436106100fc575f3560e01c8063896be29711610094578063b9e205ae11610063578063b9e205ae1461030a578063c08d611a14610332578063c9db232e14610348578063d9e6d32e14610386578063e20cd4e3146103b0576100fc565b8063896be297146102405780638da5cb5b1461027c57806398ea14db146102a657806399f853a5146102ce576100fc565b80635f56dd42116100d05780635f56dd421461017457806362e36932146101b25780636b7e73dc146101da578063817b1cd214610216576100fc565b8062ee5a76146101005780632a228fc21461012a5780633a4b66f1146101405780633ba0b9a91461014a575b5f5ffd5b34801561010b575f5ffd5b506101146103d8565b6040516101219190611632565b60405180910390f35b348015610135575f5ffd5b5061013e6103ea565b005b6101486105c5565b005b348015610155575f5ffd5b5061015e610718565b60405161016b9190611663565b60405180910390f35b34801561017f575f5ffd5b5061019a600480360381019061019591906116b7565b61071e565b6040516101a993929190611721565b60405180910390f35b3480156101bd575f5ffd5b506101d860048036038101906101d39190611780565b610772565b005b3480156101e5575f5ffd5b5061020060048036038101906101fb91906117d5565b610853565b60405161020d9190611663565b60405180910390f35b348015610221575f5ffd5b5061022a610868565b6040516102379190611663565b60405180910390f35b34801561024b575f5ffd5b50610266600480360381019061026191906117d5565b61086e565b6040516102739190611663565b60405180910390f35b348015610287575f5ffd5b506102906109ee565b60405161029d9190611800565b60405180910390f35b3480156102b1575f5ffd5b506102cc60048036038101906102c791906119ce565b610a12565b005b3480156102d9575f5ffd5b506102f460048036038101906102ef91906117d5565b610c4d565b6040516103019190611663565b60405180910390f35b348015610315575f5ffd5b50610330600480360381019061032b91906116b7565b610c62565b005b34801561033d575f5ffd5b50610346610d73565b005b348015610353575f5ffd5b5061036e600480360381019061036991906116b7565b610e6c565b60405161037d93929190611721565b60405180910390f35b348015610391575f5ffd5b5061039a610f21565b6040516103a79190611663565b60405180910390f35b3480156103bb575f5ffd5b506103d660048036038101906103d19190611a15565b610f2d565b005b60035f9054906101000a900460ff1681565b5f60048054905011610431576040517f08c379a000000000000000000000000000000000000000000000000000000000815260040161042890611aad565b60405180910390fd5b5f60045f8154811061044657610445611acb565b5b905f5260205f2090600302016040518060600160405290815f82015f9054906101000a900473ffffffffffffffffffffffffffffffffffffffff1673ffffffffffffffffffffffffffffffffffffffff1673ffffffffffffffffffffffffffffffffffffffff1681526020016001820154815260200160028201548152505090505f60035f9054906101000a900460ff166104e1575f6104ee565b6104ed825f015161086e565b5b90505f8183602001516105019190611b25565b9050826020015160025f8282546105189190611b25565b92505081905550825f015173ffffffffffffffffffffffffffffffffffffffff166108fc8290811502906040515f60405180830381858888f19350505050158015610565573d5f5f3e3d5ffd5b5061056f5f611090565b825f015173ffffffffffffffffffffffffffffffffffffffff167f5abb0fc89def2ee3226cc48f5621ee8e2b45f6dcc7898d2bdb5d480533c32bc0826040516105b89190611663565b60405180910390a2505050565b5f3411610607576040517f08c379a00000000000000000000000000000000000000000000000000000000081526004016105fe90611ba2565b60405180910390fd5b5f600154346106169190611bc0565b90508060055f3373ffffffffffffffffffffffffffffffffffffffff1673ffffffffffffffffffffffffffffffffffffffff1681526020019081526020015f205f8282546106649190611c01565b925050819055503460025f82825461067c9190611c01565b925050819055504260065f3373ffffffffffffffffffffffffffffffffffffffff1673ffffffffffffffffffffffffffffffffffffffff1681526020019081526020015f20819055503373ffffffffffffffffffffffffffffffffffffffff167f1449c6dd7851abc30abf37f57715f492010519147cc2652fbc38202c18a6ee90348360405161070d929190611c34565b60405180910390a250565b60015481565b6004818154811061072d575f80fd5b905f5260205f2090600302015f91509050805f015f9054906101000a900473ffffffffffffffffffffffffffffffffffffffff16908060010154908060020154905083565b5f5f9054906101000a900473ffffffffffffffffffffffffffffffffffffffff1673ffffffffffffffffffffffffffffffffffffffff163373ffffffffffffffffffffffffffffffffffffffff1614610800576040517f08c379a00000000000000000000000000000000000000000000000000000000081526004016107f790611ca5565b60405180910390fd5b8060035f6101000a81548160ff0219169083151502179055507fa8f26cb0e7b7eba111657fa21dfcf266000e487573acb4d4cf0dd02acee301c4816040516108489190611632565b60405180910390a150565b6005602052805f5260405f205f915090505481565b60025481565b5f5f60055f8473ffffffffffffffffffffffffffffffffffffffff1673ffffffffffffffffffffffffffffffffffffffff1681526020019081526020015f2054116108ee576040517f08c379a00000000000000000000000000000000000000000000000000000000081526004016108e590611d0d565b60405180910390fd5b5f60065f8473ffffffffffffffffffffffffffffffffffffffff1673ffffffffffffffffffffffffffffffffffffffff1681526020019081526020015f2054426109389190611b25565b90505f60055f8573ffffffffffffffffffffffffffffffffffffffff1673ffffffffffffffffffffffffffffffffffffffff1681526020019081526020015f205490505f620f424060028461098d9190611e66565b6109979190611edd565b60016109a39190611c01565b6801158e460913d000006109b79190611edd565b9050670de0b6b3a7640000606482846109d09190611bc0565b6109da9190611edd565b6109e49190611edd565b9350505050919050565b5f5f9054906101000a900473ffffffffffffffffffffffffffffffffffffffff1681565b5f5f9054906101000a900473ffffffffffffffffffffffffffffffffffffffff1673ffffffffffffffffffffffffffffffffffffffff163373ffffffffffffffffffffffffffffffffffffffff1614610aa0576040517f08c379a0000000000000000000000000000000000000000000000000000000008152600401610a9790611ca5565b60405180910390fd5b5f815111610ae3576040517f08c379a0000000000000000000000000000000000000000000000000000000008152600401610ada90611f57565b60405180910390fd5b5f5f90505b8151811015610c11575f828281518110610b0557610b04611acb565b5b602002602001015190505f5f90505b600480549050811015610c0257815f015173ffffffffffffffffffffffffffffffffffffffff1660048281548110610b4f57610b4e611acb565b5b905f5260205f2090600302015f015f9054906101000a900473ffffffffffffffffffffffffffffffffffffffff1673ffffffffffffffffffffffffffffffffffffffff1603610bf557816020015160048281548110610bb157610bb0611acb565b5b905f5260205f20906003020160010181905550816040015160048281548110610bdd57610bdc611acb565b5b905f5260205f20906003020160020181905550610c02565b8080600101915050610b14565b50508080600101915050610ae8565b507f3fa7037353c10c9f6ee7dfee1de6226f474a434f78a83f5347b27b6e49e092d48151604051610c429190611663565b60405180910390a150565b6006602052805f5260405f205f915090505481565b5f5f9054906101000a900473ffffffffffffffffffffffffffffffffffffffff1673ffffffffffffffffffffffffffffffffffffffff163373ffffffffffffffffffffffffffffffffffffffff1614610cf0576040517f08c379a0000000000000000000000000000000000000000000000000000000008152600401610ce790611ca5565b60405180910390fd5b5f8111610d32576040517f08c379a0000000000000000000000000000000000000000000000000000000008152600401610d2990611fe5565b60405180910390fd5b806001819055507f388f446e9526fe5c9af20a5919b342370c8a7c0cb05245afe1e545658fa3cdba81604051610d689190611663565b60405180910390a150565b5f5f90505b600480549050811015610e695760048181548110610d9957610d98611acb565b5b905f5260205f20906003020160020154421115610e55575f60048281548110610dc557610dc4611acb565b5b905f5260205f2090600302015f015f9054906101000a900473ffffffffffffffffffffffffffffffffffffffff169050610dfe82611090565b8073ffffffffffffffffffffffffffffffffffffffff167fce88945d9167267b2221f7d49a48f4fa6ba2384dec883af966b3001c7b33dd9860405160405180910390a28180610e4c90612003565b92505050610e64565b8080610e6090612003565b9150505b610d78565b50565b5f5f5f5f60048581548110610e8457610e83611acb565b5b905f5260205f2090600302016040518060600160405290815f82015f9054906101000a900473ffffffffffffffffffffffffffffffffffffffff1673ffffffffffffffffffffffffffffffffffffffff1673ffffffffffffffffffffffffffffffffffffffff168152602001600182015481526020016002820154815250509050805f015181602001518260400151935093509350509193909250565b5f600480549050905090565b5f8211610f6f576040517f08c379a0000000000000000000000000000000000000000000000000000000008152600401610f66906120ba565b60405180910390fd5b600460405180606001604052803373ffffffffffffffffffffffffffffffffffffffff16815260200184815260200183815250908060018154018082558091505060019003905f5260205f2090600302015f909190919091505f820151815f015f6101000a81548173ffffffffffffffffffffffffffffffffffffffff021916908373ffffffffffffffffffffffffffffffffffffffff1602179055506020820151816001015560408201518160020155505061103c60016004805490506110379190611b25565b6111ec565b3373ffffffffffffffffffffffffffffffffffffffff167fd72eb5d043f24a0168ae744d5c44f9596fd673a26bf74d9646bff4b844882d148383604051611084929190611c34565b60405180910390a25050565b6004805490508110156111e9575f60016004805490506110b09190611b25565b905080821461117457600481815481106110cd576110cc611acb565b5b905f5260205f209060030201600483815481106110ed576110ec611acb565b5b905f5260205f2090600302015f82015f9054906101000a900473ffffffffffffffffffffffffffffffffffffffff16815f015f6101000a81548173ffffffffffffffffffffffffffffffffffffffff021916908373ffffffffffffffffffffffffffffffffffffffff16021790555060018201548160010155600282015481600201559050505b6004805480611186576111856120d8565b5b600190038181905f5260205f2090600302015f5f82015f6101000a81549073ffffffffffffffffffffffffffffffffffffffff0219169055600182015f9055600282015f9055505090556004805490508210156111e7576111e6826113be565b5b505b50565b5b5f8111156113bb575f60026001836112059190611b25565b61120f9190611edd565b90506004828154811061122557611224611acb565b5b905f5260205f209060030201600101546004828154811061124957611248611acb565b5b905f5260205f20906003020160010154101561126557506113bb565b5f6004828154811061127a57611279611acb565b5b905f5260205f20906003020190505f6004848154811061129d5761129c611acb565b5b905f5260205f2090600302019050805f015f9054906101000a900473ffffffffffffffffffffffffffffffffffffffff16825f015f9054906101000a900473ffffffffffffffffffffffffffffffffffffffff16835f015f845f015f8491906101000a81548173ffffffffffffffffffffffffffffffffffffffff021916908373ffffffffffffffffffffffffffffffffffffffff1602179055508391906101000a81548173ffffffffffffffffffffffffffffffffffffffff021916908373ffffffffffffffffffffffffffffffffffffffff160217905550505080600101548260010154836001015f846001015f84919050558391905055505080600101548260010154036113b0575050506111ed565b8293505050506111ed565b50565b5f60048054905090505b600115611614575f60016002846113df9190611bc0565b6113e99190611c01565b90505f600280856113fa9190611bc0565b6114049190611c01565b90505f849050838310801561145e57506004818154811061142857611427611acb565b5b905f5260205f209060030201600101546004848154811061144c5761144b611acb565b5b905f5260205f20906003020160010154105b15611467578290505b83821080156114bb57506004818154811061148557611484611acb565b5b905f5260205f20906003020160010154600483815481106114a9576114a8611acb565b5b905f5260205f20906003020160010154105b156114c4578190505b8481036114d357505050611614565b5f600482815481106114e8576114e7611acb565b5b905f5260205f20906003020190505f6004878154811061150b5761150a611acb565b5b905f5260205f2090600302019050805f015f9054906101000a900473ffffffffffffffffffffffffffffffffffffffff16825f015f9054906101000a900473ffffffffffffffffffffffffffffffffffffffff16835f015f845f015f8491906101000a81548173ffffffffffffffffffffffffffffffffffffffff021916908373ffffffffffffffffffffffffffffffffffffffff1602179055508391906101000a81548173ffffffffffffffffffffffffffffffffffffffff021916908373ffffffffffffffffffffffffffffffffffffffff160217905550505080600101548260010154836001015f846001015f84919050558391905055505082965050505050506113c8565b5050565b5f8115159050919050565b61162c81611618565b82525050565b5f6020820190506116455f830184611623565b92915050565b5f819050919050565b61165d8161164b565b82525050565b5f6020820190506116765f830184611654565b92915050565b5f604051905090565b5f5ffd5b5f5ffd5b6116968161164b565b81146116a0575f5ffd5b50565b5f813590506116b18161168d565b92915050565b5f602082840312156116cc576116cb611685565b5b5f6116d9848285016116a3565b91505092915050565b5f73ffffffffffffffffffffffffffffffffffffffff82169050919050565b5f61170b826116e2565b9050919050565b61171b81611701565b82525050565b5f6060820190506117345f830186611712565b6117416020830185611654565b61174e6040830184611654565b949350505050565b61175f81611618565b8114611769575f5ffd5b50565b5f8135905061177a81611756565b92915050565b5f6020828403121561179557611794611685565b5b5f6117a28482850161176c565b91505092915050565b6117b481611701565b81146117be575f5ffd5b50565b5f813590506117cf816117ab565b92915050565b5f602082840312156117ea576117e9611685565b5b5f6117f7848285016117c1565b91505092915050565b5f6020820190506118135f830184611712565b92915050565b5f5ffd5b5f601f19601f8301169050919050565b7f4e487b71000000000000000000000000000000000000000000000000000000005f52604160045260245ffd5b6118638261181d565b810181811067ffffffffffffffff821117156118825761188161182d565b5b80604052505050565b5f61189461167c565b90506118a0828261185a565b919050565b5f67ffffffffffffffff8211156118bf576118be61182d565b5b602082029050602081019050919050565b5f5ffd5b5f5ffd5b5f606082840312156118ed576118ec6118d4565b5b6118f7606061188b565b90505f611906848285016117c1565b5f830152506020611919848285016116a3565b602083015250604061192d848285016116a3565b60408301525092915050565b5f61194b611946846118a5565b61188b565b9050808382526020820190506060840283018581111561196e5761196d6118d0565b5b835b81811015611997578061198388826118d8565b845260208401935050606081019050611970565b5050509392505050565b5f82601f8301126119b5576119b4611819565b5b81356119c5848260208601611939565b91505092915050565b5f602082840312156119e3576119e2611685565b5b5f82013567ffffffffffffffff811115611a00576119ff611689565b5b611a0c848285016119a1565b91505092915050565b5f5f60408385031215611a2b57611a2a611685565b5b5f611a38858286016116a3565b9250506020611a49858286016116a3565b9150509250929050565b5f82825260208201905092915050565b7f4e6f207769746864726177616c732070656e64696e67000000000000000000005f82015250565b5f611a97601683611a53565b9150611aa282611a63565b602082019050919050565b5f6020820190508181035f830152611ac481611a8b565b9050919050565b7f4e487b71000000000000000000000000000000000000000000000000000000005f52603260045260245ffd5b7f4e487b71000000000000000000000000000000000000000000000000000000005f52601160045260245ffd5b5f611b2f8261164b565b9150611b3a8361164b565b9250828203905081811115611b5257611b51611af8565b5b92915050565b7f537570706c69656420455448206d75737420626520706f7369746976650000005f82015250565b5f611b8c601d83611a53565b9150611b9782611b58565b602082019050919050565b5f6020820190508181035f830152611bb981611b80565b9050919050565b5f611bca8261164b565b9150611bd58361164b565b9250828202611be38161164b565b91508282048414831517611bfa57611bf9611af8565b5b5092915050565b5f611c0b8261164b565b9150611c168361164b565b9250828201905080821115611c2e57611c2d611af8565b5b92915050565b5f604082019050611c475f830185611654565b611c546020830184611654565b9392505050565b7f4e6f742074686520636f6e7472616374206f776e6572000000000000000000005f82015250565b5f611c8f601683611a53565b9150611c9a82611c5b565b602082019050919050565b5f6020820190508181035f830152611cbc81611c83565b9050919050565b7f5573657220686173206e6f207374616b650000000000000000000000000000005f82015250565b5f611cf7601183611a53565b9150611d0282611cc3565b602082019050919050565b5f6020820190508181035f830152611d2481611ceb565b9050919050565b5f8160011c9050919050565b5f5f8291508390505b6001851115611d8057808604811115611d5c57611d5b611af8565b5b6001851615611d6b5780820291505b8081029050611d7985611d2b565b9450611d40565b94509492505050565b5f82611d985760019050611e53565b81611da5575f9050611e53565b8160018114611dbb5760028114611dc557611df4565b6001915050611e53565b60ff841115611dd757611dd6611af8565b5b8360020a915084821115611dee57611ded611af8565b5b50611e53565b5060208310610133831016604e8410600b8410161715611e295782820a905083811115611e2457611e23611af8565b5b611e53565b611e368484846001611d37565b92509050818404811115611e4d57611e4c611af8565b5b81810290505b9392505050565b5f60ff82169050919050565b5f611e708261164b565b9150611e7b83611e5a565b9250611ea87fffffffffffffffffffffffffffffffffffffffffffffffffffffffffffffffff8484611d89565b905092915050565b7f4e487b71000000000000000000000000000000000000000000000000000000005f52601260045260245ffd5b5f611ee78261164b565b9150611ef28361164b565b925082611f0257611f01611eb0565b5b828204905092915050565b7f4e6f20757064617465732070726f7669646564000000000000000000000000005f82015250565b5f611f41601383611a53565b9150611f4c82611f0d565b602082019050919050565b5f6020820190508181035f830152611f6e81611f35565b9050919050565b7f45786368616e67652072617465206d75737420626520677265617465722074685f8201527f616e207a65726f00000000000000000000000000000000000000000000000000602082015250565b5f611fcf602783611a53565b9150611fda82611f75565b604082019050919050565b5f6020820190508181035f830152611ffc81611fc3565b9050919050565b5f61200d8261164b565b91507fffffffffffffffffffffffffffffffffffffffffffffffffffffffffffffffff820361203f5761203e611af8565b5b600182019050919050565b7f416d6f756e7420746f2062652077697468647261776e2073686f756c642062655f8201527f20706f7369746976650000000000000000000000000000000000000000000000602082015250565b5f6120a4602983611a53565b91506120af8261204a565b604082019050919050565b5f6020820190508181035f8301526120d181612098565b9050919050565b7f4e487b71000000000000000000000000000000000000000000000000000000005f52603160045260245ffdfea2646970667358221220947985e6aa4e28922bf67b604b09cee245d54e0452b62c74484a68284176e8e664736f6c634300081e0033","linkReferences":{}},"methodIdentifiers":{"bulkOwnerUpdateWithdrawals((address,uint256,uint256)[])":"98ea14db","computeExitFee(address)":"896be297","exchangeRate()":"3ba0b9a9","exitFeeEnabled()":"00ee5a76","minHeap(uint256)":"5f56dd42","owner()":"8da5cb5b","processWithdrawals()":"2a228fc2","removeExpired()":"c08d611a","requestWithdraw(uint256,uint256)":"e20cd4e3","sETHBalance(address)":"6b7e73dc","stake()":"3a4b66f1","stakeTimestamps(address)":"99f853a5","totalStaked()":"817b1cd2","updateExchangeRate(uint256)":"b9e205ae","updateExitFee(bool)":"62e36932","withdrawalHeapEntry(uint256)":"c9db232e","withdrawalHeapLength()":"d9e6d32e"},"id":19}